{
  "_format": "hh-sol-artifact-1",
  "contractName": "Token",
  "sourceName": "src/backend/contracts/Token.sol",
  "abi": [
    {
      "inputs": [],
      "stateMutability": "nonpayable",
      "type": "constructor"
    },
    {
      "anonymous": false,
      "inputs": [
        {
          "indexed": true,
          "internalType": "address",
          "name": "_owner",
          "type": "address"
        },
        {
          "indexed": true,
          "internalType": "address",
          "name": "_spender",
          "type": "address"
        },
        {
          "indexed": false,
          "internalType": "uint256",
          "name": "_value",
          "type": "uint256"
        }
      ],
      "name": "Approval",
      "type": "event"
    },
    {
      "anonymous": false,
      "inputs": [
        {
          "indexed": true,
          "internalType": "address",
          "name": "_from",
          "type": "address"
        },
        {
          "indexed": true,
          "internalType": "address",
          "name": "_to",
          "type": "address"
        }
      ],
      "name": "OwnershipTransferred",
      "type": "event"
    },
    {
      "anonymous": false,
      "inputs": [
        {
          "indexed": true,
          "internalType": "address",
          "name": "_from",
          "type": "address"
        },
        {
          "indexed": true,
          "internalType": "address",
          "name": "_to",
          "type": "address"
        },
        {
          "indexed": false,
          "internalType": "uint256",
          "name": "_value",
          "type": "uint256"
        }
      ],
      "name": "Transfer",
      "type": "event"
    },
    {
      "inputs": [],
      "name": "_decimal",
      "outputs": [
        {
          "internalType": "uint8",
          "name": "",
          "type": "uint8"
        }
      ],
      "stateMutability": "view",
      "type": "function"
    },
    {
      "inputs": [],
      "name": "_minter",
      "outputs": [
        {
          "internalType": "address",
          "name": "",
          "type": "address"
        }
      ],
      "stateMutability": "view",
      "type": "function"
    },
    {
      "inputs": [],
      "name": "_name",
      "outputs": [
        {
          "internalType": "string",
          "name": "",
          "type": "string"
        }
      ],
      "stateMutability": "view",
      "type": "function"
    },
    {
      "inputs": [],
      "name": "_symbol",
      "outputs": [
        {
          "internalType": "string",
          "name": "",
          "type": "string"
        }
      ],
      "stateMutability": "view",
      "type": "function"
    },
    {
      "inputs": [],
      "name": "_totalSupply",
      "outputs": [
        {
          "internalType": "uint256",
          "name": "",
          "type": "uint256"
        }
      ],
      "stateMutability": "view",
      "type": "function"
    },
    {
      "inputs": [],
      "name": "acceptOwnership",
      "outputs": [],
      "stateMutability": "nonpayable",
      "type": "function"
    },
    {
      "inputs": [
        {
          "internalType": "address",
          "name": "_owner",
          "type": "address"
        }
      ],
      "name": "balanceOf",
      "outputs": [
        {
          "internalType": "uint256",
          "name": "balance",
          "type": "uint256"
        }
      ],
      "stateMutability": "view",
      "type": "function"
    },
    {
      "inputs": [],
      "name": "decimals",
      "outputs": [
        {
          "internalType": "uint8",
          "name": "",
          "type": "uint8"
        }
      ],
      "stateMutability": "view",
      "type": "function"
    },
    {
      "inputs": [
        {
          "internalType": "uint256",
          "name": "amount",
          "type": "uint256"
        }
      ],
      "name": "mint",
      "outputs": [
        {
          "internalType": "bool",
          "name": "",
          "type": "bool"
        }
      ],
      "stateMutability": "nonpayable",
      "type": "function"
    },
    {
      "inputs": [],
      "name": "name",
      "outputs": [
        {
          "internalType": "string",
          "name": "",
          "type": "string"
        }
      ],
      "stateMutability": "view",
      "type": "function"
    },
    {
      "inputs": [],
      "name": "newOwner",
      "outputs": [
        {
          "internalType": "address",
          "name": "",
          "type": "address"
        }
      ],
      "stateMutability": "view",
      "type": "function"
    },
    {
      "inputs": [],
      "name": "owner",
      "outputs": [
        {
          "internalType": "address",
          "name": "",
          "type": "address"
        }
      ],
      "stateMutability": "view",
      "type": "function"
    },
    {
      "inputs": [],
      "name": "symbol",
      "outputs": [
        {
          "internalType": "string",
          "name": "",
          "type": "string"
        }
      ],
      "stateMutability": "view",
      "type": "function"
    },
    {
      "inputs": [],
      "name": "totalSupply",
      "outputs": [
        {
          "internalType": "uint256",
          "name": "",
          "type": "uint256"
        }
      ],
      "stateMutability": "view",
      "type": "function"
    },
    {
      "inputs": [
        {
          "internalType": "address",
          "name": "_to",
          "type": "address"
        },
        {
          "internalType": "uint256",
          "name": "_value",
          "type": "uint256"
        }
      ],
      "name": "transfer",
      "outputs": [
        {
          "internalType": "bool",
          "name": "success",
          "type": "bool"
        }
      ],
      "stateMutability": "nonpayable",
      "type": "function"
    },
    {
      "inputs": [
        {
          "internalType": "address",
          "name": "_from",
          "type": "address"
        },
        {
          "internalType": "address",
          "name": "_to",
          "type": "address"
        },
        {
          "internalType": "uint256",
          "name": "_value",
          "type": "uint256"
        }
      ],
      "name": "transferFrom",
      "outputs": [
        {
          "internalType": "bool",
          "name": "success",
          "type": "bool"
        }
      ],
      "stateMutability": "nonpayable",
      "type": "function"
    },
    {
      "inputs": [
        {
          "internalType": "address",
          "name": "_to",
          "type": "address"
        }
      ],
      "name": "transferOwnership",
      "outputs": [],
      "stateMutability": "nonpayable",
      "type": "function"
    }
  ],
  "bytecode": "0x60806040523480156200001157600080fd5b50336000806101000a81548173ffffffffffffffffffffffffffffffffffffffff021916908373ffffffffffffffffffffffffffffffffffffffff1602179055506040518060400160405280600481526020017f51414c4c00000000000000000000000000000000000000000000000000000000815250600290805190602001906200009f92919062000263565b506040518060400160405280600a81526020017f5175616e746572616c6c0000000000000000000000000000000000000000000081525060039080519060200190620000ed92919062000263565b506000600460006101000a81548160ff021916908360ff160217905550620186a060058190555073f39fd6e51aad88f6f4ce6ab8827279cfffb92266600660006101000a81548173ffffffffffffffffffffffffffffffffffffffff021916908373ffffffffffffffffffffffffffffffffffffffff16021790555060055460076000600660009054906101000a900473ffffffffffffffffffffffffffffffffffffffff1673ffffffffffffffffffffffffffffffffffffffff1673ffffffffffffffffffffffffffffffffffffffff16815260200190815260200160002081905550600660009054906101000a900473ffffffffffffffffffffffffffffffffffffffff1673ffffffffffffffffffffffffffffffffffffffff16600073ffffffffffffffffffffffffffffffffffffffff167fddf252ad1be2c89b69c2b068fc378daa952ba7f163c4a11628f55a4df523b3ef60055460405162000255919062000324565b60405180910390a3620003b0565b82805462000271906200034b565b90600052602060002090601f016020900481019282620002955760008555620002e1565b82601f10620002b057805160ff1916838001178555620002e1565b82800160010185558215620002e1579182015b82811115620002e0578251825591602001919060010190620002c3565b5b509050620002f09190620002f4565b5090565b5b808211156200030f576000816000905550600101620002f5565b5090565b6200031e8162000341565b82525050565b60006020820190506200033b600083018462000313565b92915050565b6000819050919050565b600060028204905060018216806200036457607f821691505b602082108114156200037b576200037a62000381565b5b50919050565b7f4e487b7100000000000000000000000000000000000000000000000000000000600052602260045260246000fd5b610f5d80620003c06000396000f3fe608060405234801561001057600080fd5b506004361061010b5760003560e01c806379ba5097116100a2578063a9059cbb11610071578063a9059cbb1461029a578063b09f1266146102ca578063d28d8852146102e8578063d4ee1d9014610306578063f2fde38b146103245761010b565b806379ba5097146102245780638da5cb5b1461022e57806395d89b411461024c578063a0712d681461026a5761010b565b8063313ce567116100de578063313ce5671461019a5780633eaaf86b146101b8578063578ec33f146101d657806370a08231146101f45761010b565b806306fdde031461011057806318160ddd1461012e57806323b872dd1461014c5780632f0e31201461017c575b600080fd5b610118610340565b6040516101259190610cd2565b60405180910390f35b6101366103d2565b6040516101439190610cf4565b60405180910390f35b61016660048036038101906101619190610b73565b6103dc565b6040516101739190610cb7565b60405180910390f35b610184610546565b6040516101919190610d0f565b60405180910390f35b6101a2610559565b6040516101af9190610d0f565b60405180910390f35b6101c0610570565b6040516101cd9190610cf4565b60405180910390f35b6101de610576565b6040516101eb9190610c9c565b60405180910390f35b61020e60048036038101906102099190610b4a565b61059c565b60405161021b9190610cf4565b60405180910390f35b61022c6105e5565b005b610236610781565b6040516102439190610c9c565b60405180910390f35b6102546107a5565b6040516102619190610cd2565b60405180910390f35b610284600480360381019061027f9190610bfe565b610837565b6040516102919190610cb7565b60405180910390f35b6102b460048036038101906102af9190610bc2565b61092d565b6040516102c19190610cb7565b60405180910390f35b6102d2610942565b6040516102df9190610cd2565b60405180910390f35b6102f06109d0565b6040516102fd9190610cd2565b60405180910390f35b61030e610a5e565b60405161031b9190610c9c565b60405180910390f35b61033e60048036038101906103399190610b4a565b610a84565b005b60606003805461034f90610e58565b80601f016020809104026020016040519081016040528092919081815260200182805461037b90610e58565b80156103c85780601f1061039d576101008083540402835291602001916103c8565b820191906000526020600020905b8154815290600101906020018083116103ab57829003601f168201915b5050505050905090565b6000600554905090565b600081600760008673ffffffffffffffffffffffffffffffffffffffff1673ffffffffffffffffffffffffffffffffffffffff16815260200190815260200160002054101561042a57600080fd5b81600760008673ffffffffffffffffffffffffffffffffffffffff1673ffffffffffffffffffffffffffffffffffffffff16815260200190815260200160002060008282546104799190610d9c565b9250508190555081600760008573ffffffffffffffffffffffffffffffffffffffff1673ffffffffffffffffffffffffffffffffffffffff16815260200190815260200160002060008282546104cf9190610d46565b925050819055508273ffffffffffffffffffffffffffffffffffffffff168473ffffffffffffffffffffffffffffffffffffffff167fddf252ad1be2c89b69c2b068fc378daa952ba7f163c4a11628f55a4df523b3ef846040516105339190610cf4565b60405180910390a3600190509392505050565b600460009054906101000a900460ff1681565b6000600460009054906101000a900460ff16905090565b60055481565b600660009054906101000a900473ffffffffffffffffffffffffffffffffffffffff1681565b6000600760008373ffffffffffffffffffffffffffffffffffffffff1673ffffffffffffffffffffffffffffffffffffffff168152602001908152602001600020549050919050565b600160009054906101000a900473ffffffffffffffffffffffffffffffffffffffff1673ffffffffffffffffffffffffffffffffffffffff163373ffffffffffffffffffffffffffffffffffffffff161461063f57600080fd5b600160009054906101000a900473ffffffffffffffffffffffffffffffffffffffff1673ffffffffffffffffffffffffffffffffffffffff1660008054906101000a900473ffffffffffffffffffffffffffffffffffffffff1673ffffffffffffffffffffffffffffffffffffffff167f8be0079c531659141344cd1fd0a4f28419497f9722a3daafe3b4186f6b6457e060405160405180910390a3600160009054906101000a900473ffffffffffffffffffffffffffffffffffffffff166000806101000a81548173ffffffffffffffffffffffffffffffffffffffff021916908373ffffffffffffffffffffffffffffffffffffffff1602179055506000600160006101000a81548173ffffffffffffffffffffffffffffffffffffffff021916908373ffffffffffffffffffffffffffffffffffffffff160217905550565b60008054906101000a900473ffffffffffffffffffffffffffffffffffffffff1681565b6060600280546107b490610e58565b80601f01602080910402602001604051908101604052809291908181526020018280546107e090610e58565b801561082d5780601f106108025761010080835404028352916020019161082d565b820191906000526020600020905b81548152906001019060200180831161081057829003601f168201915b5050505050905090565b6000600660009054906101000a900473ffffffffffffffffffffffffffffffffffffffff1673ffffffffffffffffffffffffffffffffffffffff163373ffffffffffffffffffffffffffffffffffffffff161461089357600080fd5b8160076000600660009054906101000a900473ffffffffffffffffffffffffffffffffffffffff1673ffffffffffffffffffffffffffffffffffffffff1673ffffffffffffffffffffffffffffffffffffffff16815260200190815260200160002060008282546109049190610d46565b92505081905550816005600082825461091d9190610d46565b9250508190555060019050919050565b600061093a3384846103dc565b905092915050565b6002805461094f90610e58565b80601f016020809104026020016040519081016040528092919081815260200182805461097b90610e58565b80156109c85780601f1061099d576101008083540402835291602001916109c8565b820191906000526020600020905b8154815290600101906020018083116109ab57829003601f168201915b505050505081565b600380546109dd90610e58565b80601f0160208091040260200160405190810160405280929190818152602001828054610a0990610e58565b8015610a565780601f10610a2b57610100808354040283529160200191610a56565b820191906000526020600020905b815481529060010190602001808311610a3957829003601f168201915b505050505081565b600160009054906101000a900473ffffffffffffffffffffffffffffffffffffffff1681565b60008054906101000a900473ffffffffffffffffffffffffffffffffffffffff1673ffffffffffffffffffffffffffffffffffffffff163373ffffffffffffffffffffffffffffffffffffffff1614610adc57600080fd5b80600160006101000a81548173ffffffffffffffffffffffffffffffffffffffff021916908373ffffffffffffffffffffffffffffffffffffffff16021790555050565b600081359050610b2f81610ef9565b92915050565b600081359050610b4481610f10565b92915050565b600060208284031215610b5c57600080fd5b6000610b6a84828501610b20565b91505092915050565b600080600060608486031215610b8857600080fd5b6000610b9686828701610b20565b9350506020610ba786828701610b20565b9250506040610bb886828701610b35565b9150509250925092565b60008060408385031215610bd557600080fd5b6000610be385828601610b20565b9250506020610bf485828601610b35565b9150509250929050565b600060208284031215610c1057600080fd5b6000610c1e84828501610b35565b91505092915050565b610c3081610dd0565b82525050565b610c3f81610de2565b82525050565b6000610c5082610d2a565b610c5a8185610d35565b9350610c6a818560208601610e25565b610c7381610ee8565b840191505092915050565b610c8781610e0e565b82525050565b610c9681610e18565b82525050565b6000602082019050610cb16000830184610c27565b92915050565b6000602082019050610ccc6000830184610c36565b92915050565b60006020820190508181036000830152610cec8184610c45565b905092915050565b6000602082019050610d096000830184610c7e565b92915050565b6000602082019050610d246000830184610c8d565b92915050565b600081519050919050565b600082825260208201905092915050565b6000610d5182610e0e565b9150610d5c83610e0e565b9250827fffffffffffffffffffffffffffffffffffffffffffffffffffffffffffffffff03821115610d9157610d90610e8a565b5b828201905092915050565b6000610da782610e0e565b9150610db283610e0e565b925082821015610dc557610dc4610e8a565b5b828203905092915050565b6000610ddb82610dee565b9050919050565b60008115159050919050565b600073ffffffffffffffffffffffffffffffffffffffff82169050919050565b6000819050919050565b600060ff82169050919050565b60005b83811015610e43578082015181840152602081019050610e28565b83811115610e52576000848401525b50505050565b60006002820490506001821680610e7057607f821691505b60208210811415610e8457610e83610eb9565b5b50919050565b7f4e487b7100000000000000000000000000000000000000000000000000000000600052601160045260246000fd5b7f4e487b7100000000000000000000000000000000000000000000000000000000600052602260045260246000fd5b6000601f19601f8301169050919050565b610f0281610dd0565b8114610f0d57600080fd5b50565b610f1981610e0e565b8114610f2457600080fd5b5056fea26469706673582212208296e04ed2b29ebbbf5ac6454f66957be260855e5fe051ca0c715f9ca013aa0d64736f6c63430008040033",
  "linkReferences": {},
  "deployedLinkReferences": {}
}